:100000000C94872B0C94B82B0C94B82B0C94B82B15
:100010000C94B82B0C94B82B0C94B82B0C94B82BD4
:100020000C94B82B0C94B82B0C94B82B0C94B82BC4
:100030000C94B82B0C94B82B0C94B82B0C94B82BB4
:100040000C94B82B0C94B3D10C94B82B0C94B82B03
:100050000C94B82B0C94B82B0C94EEC90D94262656
:100060000C94B82B0C94B0A60C947AA60C94B82BD4
:100070000C94B82B0C94B82B0C94B82B0C94B82B74
:100080000C94CA820C94B82B0C94B82B0C94B82BFB
:100090000C94B82B0C94B82B0C94B82B0C94B82B54
:1000A0000C94B82B0C94B82B0C949C820C94B82B09
:1000B0000C94B82B0C94B82B0C94B82B0C946E8227
:1000C0000C94B82B0C94B82B0C94B82B0C94B82B24
:1000D0000C94B82B0C94B82B0C94B82B0C94B82B14
:1000E0000C94B82B084AD73B3BCE016E84BCBFFDB5
:1000F000C12F3D6C74319ABD56833DDA3D00C77FF8
:1001000011BED9E4BB4C3E916BAAAABE0000008090
:100110003F05A84CCDB2D44EB93836A9020C50B91F
:10012000918688083CA6AAAA2ABE000000803F004B
:100130000C9452710C94A2610C9424A70D94C732B4
:100140000D9497240C9442410C94732C0C94074BFF
:100150000D94F8220C9478460C9419580C943B2E6C
:100160000C942B580C94B6610C94BF4C0C94B3FFB8
:100170000D9465240C9443A70C943BA70C9425582C
:100180000C94BE610C94BB610C9465300D94FD22FF
:100190000C94B25A0C94BC2D0C94352C0D94F02276
:1001A0000D94863A0C94D52B0C940B3C0C94006562
:1001B0000C94EE450C9416A70C946E380C944F5882
:1001C0000C94EE3B0D94C3220D94CB220C948BFF28
:1001D0000C94C32C0C94472F0C94D12C0D94CF224B
:1001E0000C946E2E0C9442310C94522F0C94D02B04
:1001F0000C949F610C944B2C0C94B9360C945F2C8E
:100200000C94A5610C94465C0D94DC220C94F92EA0
:100210000C9413580C949C610C94AE610C94A52E14
:100220000C946F300C94932F0C9419310C9431581A
:100230000C94B1610C94B3830C940B840C947B2FBD
:100240000C94CC2F0C94415C0C943C5C0D942824B1
:100250000C948CFF0C945B300C94AF830D94302481
:100260000C9449A70C94EE2B0D9442240C948544D5
:100270000C94612F0D9405240C9453710C943FA79A
:100280000C94AA520D9402230D94FE220C949C3DD2
:100290000C94DD380D9438240C948C300C949638E2
:1002A0000C94682E0C949E380C942D470C94B13FFE
:1002B0000C943D580C94E6830D94EA220C94CE2EB7
:1002C0000D9483240C94022F0C949B2C0C94AF2C33
:1002D0000C945E830C94B8610C94545C0C94A24E04
:1002E0000C948E380C9443580C9408300C94842E43
:1002F0000C948C830C9486380C948A830D946F2410
:100300000C94005F0C947E380C942CA70C94AB6179
:100310000C941F580C94872C0C942B560D94562437
:100320000C945C2E0C945F580C943DC00D94D82214
:100330000C94B75A0C94B0490C94FB2B0D94FD23EC
:100340000C944B5C0C940D840D94E6220C94E92FD4
:100350000C9406300C945E380D94D2220C945558AF
:100360000C9425300D94E2220C9493610C945E362B
:100370000C9437A70C94092F0C94CA2F0C940F845B
:100380000C9476380C94EA830D940A240D94C722B9
:100390000C943B480C94002F0C9433A70C94B1554B
:1003A0000C94282F0C9462540C94622E0C94EBA69F
:1003B0000D944C240D94F4220C9437580C94D4735F
:1003C0000D9479240C94572F0C94B1830C945C2FCA
:1003D0000C94A8610C94AD5A0C946D430C9456384F
:1003E0000C9449580D948D240D94BD220C94852FA6
:1003F0000C94B92D0D9438000C94E8830C942D2E98
:100400000D941E240C94496B0C94EA640D941424EE
:100410000C9466380C941F2C4E414E494E49545949
:10042000494E46CDCCCC3D0AD7233C17B7D13877BF
:10043000CC2B329595E6241FB14F0A0000204100D5
:1004400000C84200401C4620BCBE4CCA1B0E5AAE1F
:10045000C59D746F6F6F00000047414D45204F569A
:10046000455200107CFEFEFE444024800000318096
:1004700000002480444004000E000E007FC0FFE016
:10048000FFE0FFE0FFE01FC07FF0DDD8FFF87FF066
:1004900006000F001F8036C03FC0090016802940AB
:1004A00006000F001F8036C03FC01680204010801D
:1004B000104008801FC037607FF05FD050500D8023
:1004C000104048905FD077707FF01FC01040202010
:1004D0000F007FE0FFF0E670FFF0198036C0C030FB
:1004E0000F007FE0FFF0E670FFF0198036C0198042
:1004F0000A003B20454550524F4D20496E646578B7
:100500003A20005570646174696E67207A6F666680
:1005100073657420696E20454550524F4D3A200056
:1005200001FC0007FF000F07800E01C00001C000A2
:1005300000E00800E01C00E03E00E07F00E01C005E
:10054000E00E00E00E01C00783C003FF8000FE0044
:1005500000FE0003FF800783C00E01C00E00E01CF8
:1005600000E07F00E03E00E01C00E00800E000004A
:10057000E00001C00E01C00F078007FF0001FC0072
:100580000E000E000E000E000E000E000E000E00FB
:100590007FC03F801F000E00040004000E001F00FB
:1005A0003F807FC00E000E000E000E000E000E00F9
:1005B0000E000E00FFFFFF7F80FFC0FFC0FFC07F67
:1005C000807F80FFC0FFC0FFC03F001E000C0050B6
:1005D000726F6265205A204F6666736574004C6FB7
:1005E0006164206D6D004C6F6164206D6D00556E0F
:1005F0006C6F6164206D6D00556E6C6F6164206D71
:100600006D00416476616E6365204B0041647661E4
:100610006E6365204B00416476616E6365642053B0
:10062000657474696E6773004D3330332055312023
:100630004525692053256900504944204175746F50
:1006400074756E6500504944204175746F74756E01
:100650006500416476616E636564205365747469F6
:100660006E6773005654726176206D696E00565441
:10067000726176206D696E00566D696E00566D6907
:100680006E00566D6178204500566D6178204500FA
:10069000566D6178205A00566D6178205A00566D6B
:1006A0006178205900566D6178205900566D617847
:1006B000205800566D6178205800416476616E6361
:1006C00065642053657474696E677300416D617869
:1006D000204500416D6178204500416D6178205AC8
:1006E00000416D6178205A00416D617820590041C8
:1006F0006D6178205900416D6178205800416D612D
:1007000078205800412D74726176656C00412D741B
:10071000726176656C00412D72657472616374005C
:10072000412D7265747261637400416363656C008E
:10073000416363656C00416476616E636564205358
:10074000657474696E67730056652D6A65726B0017
:1007500056652D6A65726B00567A2D6A65726B005C
:10076000567A2D6A65726B0056792D6A65726B0038
:1007700056792D6A65726B0056782D6A65726B002A
:1007800056782D6A65726B00416476616E636564AC
:100790002053657474696E67730045737465707374
:1007A0002F6D6D004573746570732F6D6D005A73F6
:1007B000746570732F6D6D005A73746570732F6D4F
:1007C0006D005973746570732F6D6D005973746586
:1007D00070732F6D6D005873746570732F6D6D009D
:1007E0005873746570732F6D6D00416476616E632C
:1007F00065642053657474696E67730046696C6143
:100800006D656E740054656D7065726174757265A6
:10081000004261636B6C6173680053746570732F81
:100820006D6D004A65726B00416363656C65726152
:1008300074696F6E0056656C6F6369747900436FFD
:100840006E66696775726174696F6E00536D6F6F64
:100850007468696E6700536D6F6F7468696E6700C6
:100860005A005A005900590058005800436F7272DC
:10087000656374696F6E00436F7272656374696F4C
:100880006E004D61696E00436D643A2053746F775A
:1008900000436D643A204465706C6F7900436D6469
:1008A0003A2053656C662D5465737400436D643A49
:1008B0002053572D4D6F646500436D643A20526597
:1008C00073657400436F6E66696775726174696FF2
:1008D0006E004C6F61642073657474696E67730099
:1008E000526573746F7265206661696C73616665C9
:1008F0000053746F72652073657474696E6773005A
:10090000424C546F7563680050726F6265205A20C4
:100910004F666673657400416476616E636564203A
:1009200053657474696E6773004D61696E004D376D
:10093000303220542564004D36303020423020546F
:100940002564004D373032203B2564004D3730316F
:1009500020542564004368616E67652066696C6198
:100960006D656E74005072656865617420437573BF
:10097000746F6D0050726568656174204142530068
:100980005072656865617420504C41005072656812
:1009900065617420437573746F6D004261636B0011
:1009A000456E642066696C616D656E742063686174
:1009B0006E6765005075726765206D6F7265000027
:1009C0004368616E67696E672046696C616D656E2C
:1009D0007400554E4C4F41442046494C414D454EC4
:1009E00054004C4F41442046494C414D454E540023
:1009F00020204E6F7A7A6C653A2000200050617298
:100A00006B696E672E2E2E00746F20737461727482
:100A10000066696C616D656E74206368616E676500
:100A2000005761697420666F720066696C616D655C
:100A30006E7420756E6C6F61640057616974206616
:100A40006F7200506C6561736520776169742E2E3A
:100A50002E004E6F7A7A6C652068656174696E67E6
:100A600000746F2068656174206E6F7A7A6C65001F
:100A7000507265737320627574746F6E00746F20AA
:100A8000636F6E74696E756500616E642070726567
:100A9000737320627574746F6E00496E736572743F
:100AA0002066696C616D656E740066696C616D6568
:100AB0006E74206C6F6164005761697420666F7298
:100AC00000746F20726573756D65207072696E7445
:100AD00000507265737320627574746F6E00506C91
:100AE0006561736520776169742E000066696C61C9
:100AF0006D656E742070757267650057616974204A
:100B0000666F7200536E346B3300496E76616465B4
:100B1000727300427269636B6F7574004D61696E28
:100B20000047616D6573004669726D77617265207B
:100B300056657273696F6E004D61696E003F0053B8
:100B4000746F70207072696E74004261636B005341
:100B5000746F70004D323520500A4D32340050729F
:100B6000696E74207061757365640050617573659A
:100B7000207072696E7400726573756D65004D3218
:100B800034005072696E742066726F6D2053440099
:100B90004368616E67652053442063617264004D51
:100BA00032310041626F7574205072696E746572E3
:100BB000004368616E67652066696C616D656E747F
:100BC000004368616E67652066696C616D656E746F
:100BD000004D36303020423000436F6E66696775D5
:100BE000726174696F6E0054656D706572617475C1
:100BF0007265004D6F76656D656E74005265737534
:100C00006D65207072696E74004E6F2053442063CE
:100C10006172640054756E650053746F7020707259
:100C2000696E74005061757365207072696E74002E
:100C3000496E666F2073637265656E004D6F7665F1
:100C40002058004D6F76652059004D6F7665205A0B
:100C50000045787472756465722000457874727509
:100C600064657220004175746F20686F6D65004780
:100C70003238004D6F7665205A004D6F76652059E9
:100C8000004D6F76652058004D6F76656D656E740A
:100C90000044697361626C6520737465707065727D
:100CA00073004D38340046616465204865696768A3
:100CB00074004661646520486569676874004F6622
:100CC00066004F6E00426564204C6576656C696E07
:100CD00067004C6576656C20626564004732380AAF
:100CE00047323900486F6D65205A00473238205A24
:100CF00000486F6D65205900473238205900486F11
:100D00006D652058004732382058004175746F20B7
:100D1000686F6D6500473238004D6F7665206178E9
:100D20006973004D61696E003F00537461727420F5
:100D30007072696E74200043616E63656C0050725E
:100D4000696E740043616E6E6F7420656E746572B7
:100D5000207375626469723A2000022E2E004D6184
:100D6000696E00436F6F6C646F776E0046616E2032
:100D7000737065656420310046616E20737065652F
:100D80006420310042656400426564004E6F7A7AE7
:100D90006C65004E6F7A7A6C65004D61696E004239
:100DA000616279737465702058004261627973746E
:100DB000657020590050726F6265205A204F666638
:100DC00073657400426162797374657020590042E2
:100DD00061627973746570205800466C6F770046C5
:100DE0006C6F770046616E2073706565642031001A
:100DF00046616E2073706565642031004265640051
:100E0000426564004E6F7A7A6C65004E6F7A7A6C38
:100E100065005370656564005370656564004D61DD
:100E2000696E0025753A2530327500253032753AE5
:100E3000253032750025756420253032753A25300D
:100E4000327500202020202020200020202020009B
:100E50001FE0201020102010102010202010201043
:100E600030300840048003001FE03FF03FF03FF0C7
:100E70001FE01FE03FF03FF03FF00FC0078003008E
:100E80003FFFF038007030FC3020FC10207810203C
:100E900030102C00D02E31D02F7BD02F7BD02E3194
:100EA000D02C00D020301020781020FC1030FC30E6
:100EB0003800703FFFF03FFFF0380070318630237C
:100EC00087102787902F87D02F03D02030102078CD
:100ED000102078102030102F03D02F87D027879034
:100EE0002387103186303800703FFFF01FFFF81F56
:100EF000FFF80410400208200208200410400820D7
:100F000080104100104100082080041040000000C3
:100F10001FFFF81FFFF8436172642072656D6F76E2
:100F20006564004361726420696E73657274656400
:100F3000004C756C7A426F742054415A20362072EE
:100F4000656164792E005072696E74696E672E2E29
:100F50002E005072696E7420706175736564006351
:100F6000616E63656C005072696E742061626F72AD
:100F700074656400434F4D4D554E49434154494FAC
:100F80004E0044525952554E004552524F52530052
:100F9000494E464F004543484F004572726F7220DC
:100FA00077726974696E6720746F20454550524F9F
:100FB0004D210A00627573793A207061757365641A
:100FC00020666F7220696E7075740A00627573799D
:100FD0003A2070617573656420666F722075736561
:100FE000720A00627573793A2070726F6365737369
:100FF000696E670A004B494C4C20636175736564E8
:1010000020627920746F6F206D75636820696E614E
:1010100063746976652074696D65202D206375722F
:1010200072656E7420636F6D6D616E643A2000505E
:101030006C65617365207265736574005052494E2A
:101040005445522048414C54454400706F776572B6
:101050006F6666004B494C4C45442E200050726927
:101060006E7465722068616C7465642E206B696CA7
:101070006C28292063616C6C6564210A0053544F0D
:10108000505045442E20005072696E746572207372
:10109000746F707065642064756520746F2065726C
:1010A000726F72732E2046697820746865206572AD
:1010B000726F7220616E6420757365204D39393905
:1010C00020746F20726573746172742E20285465C9
:1010D0006D706572617475726520697320726573D5
:1010E00065742E205365742069742061667465727E
:1010F0002072657374617274696E67290A00656392
:10110000686F3A004572726F723A0042696C696E9C
:10111000656172204C6576656C696E6720477269FF
:10112000643A0A0053544F502063616C6C6564202C
:1011300062656361757365206F6620424C546F75FC
:101140006368206572726F72202D207265737461FE
:1011500072742077697468204D3939390A00535404
:101160004F502063616C6C656420626563617573C8
:1011700065206F6620424C546F75636820657272FB
:101180006F72202D20726573746172742077697498
:1011900068204D3939390A00486F74656E642074CF
:1011A0006F6F20636F6C640A005072657373206206
:1011B0007574746F6E20286F72204D31303829207D
:1011C000746F20726573756D650A00496E73657280
:1011D000742066696C616D656E7420616E64207048
:1011E0007265737320627574746F6E20286F72203D
:1011F0004D313038290A005072657373206275745E
:10120000746F6E20286F72204D3130382920746F32
:101210002068656174206E6F7A7A6C650A0070616F
:1012200075736564004D3630303A20546F6F20631B
:101230006F6C6400486F74656E6420746F6F206318
:101240006F6C640A00726573756D656400496E7336
:101250006572742066696C616D656E7420616E6480
:1012600020707265737320627574746F6E20286FBE
:1012700072204D313038290A004F46460A00466137
:101280006465204865696768742000426564204C85
:101290006576656C696E6720004661696C656420DF
:1012A000746F20656E61626C6520426564204C65D8
:1012B00076656C696E670A00496E76616C696420B8
:1012C0006D6573682E0A00202844525952554E29E4
:1012D00000473239204175746F20426564204C65A7
:1012E00076656C696E67003F20284C2C522C462C8A
:1012F0004229206F7574206F6620626F756E64736B
:101300002E0A003F2856296572626F7365206C654E
:1013100076656C20697320696D706C6175736962A4
:101320006C652028302D34292E0A00426164205A31
:101330002076616C75650A004E6F2062696C696E7B
:1013400065617220677269640A002020536D6F6FB7
:101350007468696E6720286D6D293A20202020204E
:10136000202020202020202020202020530020206A
:101370004261636B6C6173682044697374616E636E
:101380006520286D6D293A20202020202020200073
:10139000202846312E30203D2066756C6C2C20466E
:1013A000302E30203D206E6F6E65290A00202043CC
:1013B0006F7272656374696F6E20416D6F756E74C4
:1013C0002F466164652D6F75743A202020202046D9
:1013D000006163746976653A0A00696E0042616370
:1013E0006B6C61736820436F7272656374696F6EB2
:1013F0002000205400205200416363656C657261D7
:1014000074696F6E3A2050005741524E494E472141
:10141000204C6F77205A204A65726B206D617920CD
:101420006C65616420746F20756E77616E7465649D
:10143000207061757365732E0A0000002000230080
:10144000260029002C002F003200000100000301BB
:10145000060109014732380020496E76616C6964E3
:101460002065787472756465722000536C656570D0
:101470002E2E2E00486F6D652058592066697273B4
:10148000740A00486F6D652058592066697273743C
:1014900000205A3A200020593A2000426564205822
:1014A0003A20004D65736820706F696E7420636127
:1014B0006E6E6F74206265207265736F6C76656402
:1014C0000A00436C69636B20746F20726573756DDD
:1014D000652E2E2E004E6F206D6F76652E00456EA8
:1014E000642066696C65206C6973740A00426567E4
:1014F000696E2066696C65206C6973740A00286ED9
:101500006F2066696C65290043757272656E742080
:1015100066696C653A20005344207072696E746984
:101520006E67206279746520004E6F7420534420EA
:101530007072696E74696E670A002E0A0044656CE9
:101540006574696F6E206661696C65642C204669FC
:101550006C653A200046696C652064656C6574654D
:10156000643A002569730025696D2025697300259B
:1015700069682025696D2025697300256964202527
:1015800069682025696D2025697300256979202502
:101590006964202569682025696D202569730050DC
:1015A00072696E742074696D653A200050726F74B0
:1015B00065637465642050696E0A0025301D0C183F
:1015C000282924311C0B174527232F1B0A444322AB
:1015D0002B1A4142033809FF3603080602020001B4
:1015E000486F74656E6420436F6F6C696E672E2E52
:1015F0002E00486F74656E642048656174696E677B
:101600002E2E2E006F666600950F900F890F820FA9
:10161000740F44454255473A004D31313320530051
:101620006F6B004C756C7A426F742054415A2036AF
:10163000204F46462E004348414D4245525F544597
:101640004D5045524154555245004D4F54494F4E0F
:101650005F4D4F44455300544845524D414C5F50F7
:10166000524F54454354494F4E004155544F5245F3
:10167000504F52545F53445F53544154555300509C
:10168000524F4D50545F535550504F525400454D9A
:10169000455247454E43595F5041525345520043CE
:1016A0004153455F4C494748545F4252494748546B
:1016B0004E45535300544F47474C455F4C494748AC
:1016C000545300534F4654574152455F504F57456E
:1016D00052004255494C445F50455243454E5400D8
:1016E0004C4556454C494E475F44415441005A5F72
:1016F00050524F4245004155544F4C4556454C00C1
:101700005052494E545F4A4F420050524F47524543
:101710005353004155544F5245504F52545F544516
:101720004D5000564F4C554D455452494300454588
:1017300050524F4D0042494E4152595F46494C4527
:101740005F5452414E534645520053455249414C15
:101750005F584F4E5F584F4646004649524D5741DD
:1017600052455F4E414D453A4D61726C696E202085
:101770004649524D574152455F56455253494F4E87
:101780003A322E302E302E313434204558545255B2
:101790004445525F545950453A53696E676C6545EC
:1017A000787472756465724165726F563220534F5A
:1017B000555243455F434F44455F55524C3A687418
:1017C0007470733A2F2F636F64652E616C65706857
:1017D0006F626A656374732E636F6D2F64696666EA
:1017E0007573696F6E2F4D41524C494E2050524FC8
:1017F000544F434F4C5F56455253494F4E3A312E4A
:1018000030204D414348494E455F545950453A4C6C
:10181000756C7A426F742054415A203620455854D2
:1018200052554445525F434F554E543A3120555519
:1018300049443A38343566303033632D616562642B
:101840002D346535332D613662392D3764303938A2
:10185000346664653630390A002F2F20004D31344C
:101860003520533C696E6465783E206F7574206F37
:10187000662072616E67652028302D31290A004F7D
:101880004646004F4E00205A0020590058002020A4
:101890004D61783A2000205A00205900580020203D
:1018A0004D696E3A2000536F667420656E647374E0
:1018B0006F70733A200020466C6F773A20003A2010
:1018C0000020536572766F2000206F7574206F665C
:1018D0002072616E67650A00536572766F20005052
:1018E000726F6265205A204F66667365743A2000F5
:1018F00020643A0020693A0020703A00496E76610F
:101900006C69642065787472756465720A0020647D
:101910003A0020693A0020703A0064697300656EED
:101920000043290A0061626C656420286D696E209D
:1019300074656D702000436F6C64206578747275F7
:101940006465732061726520004D65736820706F57
:10195000696E742063616E6E6F74206265207265BB
:10196000736F6C7665640A004D34323120696E63A2
:101970006F727265637420706172616D65746572F7
:101980002075736167650A00454550524F4D204FE1
:101990004B0A003F5A206F7574206F662072616E8B
:1019A000676520282D323020746F203230290A00DC
:1019B00050726F6265205A204F66667365743A20D4
:1019C000003F4B2076616C7565206F7574206F66E3
:1019D0002072616E67652028302D3130292E0A0073
:1019E000416476616E6365204B3D00496E76616CA3
:1019F00069642065787472756465720A0043617069
:101A00003A0047322F47332062616420706172616F
:101A10006D65746572730A00220A00656E717565E2
:101A20007565696E672022002042002050006F6BB0
:101A300000526573656E643A200053544F50504510
:101A4000442E20005072696E7465722073746F703A
:101A50007065642064756520746F206572726F72A2
:101A6000732E2046697820746865206572726F72E3
:101A700020616E6420757365204D39393920746F8B
:101A800020726573746172742E202854656D7065C0
:101A90007261747572652069732072657365742E46
:101AA00020536574206974206166746572207265C4
:101AB0007374617274696E67290A004E6F204368FF
:101AC00065636B73756D2077697468206C696E65EA
:101AD000206E756D6265722C204C617374204C69A8
:101AE0006E653A20004E6F20436865636B73756DB9
:101AF0002077697468206C696E65206E756D62650B
:101B0000722C204C617374204C696E653A2000631E
:101B10006865636B73756D206D69736D617463685F
:101B20002C204C617374204C696E653A20004C691E
:101B30006E65204E756D626572206973206E6F74DC
:101B4000204C617374204C696E65204E756D626522
:101B5000722B312C204C617374204C696E653A20D5
:101B6000004D313130004D333100534420726561F6
:101B700064206572726F720A00446F6E6520707225
:101B8000696E74696E672066696C650A0020573A51
:101B90000042656420636F6F6C696E672E2E2E00A5
:101BA0004265642068656174696E672E2E2E00237D
:101BB000646566696E652044454641554C545F0036
:101BC00000626564004B6420004B6920004B70206C
:101BD00000504944204175746F74756E65206669C4
:101BE0006E6973686564212050757420746865207F
:101BF0006C617374204B702C204B6920616E6420E3
:101C00004B6420636F6E7374616E74732066726FC1
:101C10006D2062656C6F7720696E746F20436F6E04
:101C200066696775726174696F6E2E680A00504943
:101C300044204175746F74756E65206661696C65CA
:101C400064212074696D656F75740A00486F74654E
:101C50006E6420544845524D414C2052554E4157D8
:101C600041590042454420544845524D414C205270
:101C7000554E4157415900546865726D616C205250
:101C8000756E6177617900486F74656E6420486590
:101C90006174696E67206661696C656400426564A1
:101CA0002068656174696E67206661696C656400AF
:101CB00048656174696E67206661696C656400508F
:101CC0004944204175746F74756E65206661696C56
:101CD0006564212054656D7065726174757265204C
:101CE000746F6F20686967680A00204B643A2000AF
:101CF000204B693A2000204B703A20000A20436CA8
:101D0000617373696320504944200A002054753A76
:101D10002000204B753A2000206D61783A20002089
:101D20006D696E3A200020643A2000206269617378
:101D30003A2000504944204175746F74756E6520D7
:101D400073746172740A00504944204175746F7451
:101D5000756E65206661696C6564212054656D70DF
:101D60006572617475726520746F6F206869676849
:101D70000A00504944204175746F74756E65206681
:101D800061696C65642120426164206578747275B4
:101D9000646572206E756D6265720A004572723AF2
:101DA000207574663820666F6E74206E6F742069BB
:101DB0006E697469616C697A65642E004572723A65
:101DC000207574663820666F6E74206E6F7420699B
:101DD0006E697469616C697A65642E004572723A45
:101DE000207574663820666F6E74206E6F7420697B
:101DF0006E697469616C697A65642E001FFFFFFF6C
:101E0000FFFFFF600000000001FF40000000000035
:101E1000FF8000000000007F83CF00000C303F8770
:101E2000FF80000C301F867980000C000F8C30C7BB
:101E3000838C30E78C30CFC7CC31F38C30DCECECCA
:101E400033B98C30D86C6C33198C30D06C0C33199E
:101E50008C30D86C0C33198C30DC6C0E3B198C3008
:101E6000CF7C079F198C30C77C038F19400000007E
:101E7000000002600000000000061FFFFFFFFFFFE0
:101E8000F800060900FE06018902FE20FFFE07FE9B
:101E900006FE00000006000701060606020080801C
:101EA00080800080030303060103A0A0A0050707AC
:101EB0000600FF5050F850F850500509090600FE82
:101EC0002070A8A07028A870200608080600FF400F
:101ED000A84810204854080507070600FF609090A6
:101EE0006098906801030306020380808002070760
:101EF0000602FF408080808080400207070602FFC4
:101F0000804040404040800505050600008850F8AC
:101F100050880505050600002020F8202002040452
:101F20000602FEC0404080050101060002F80202E0
:101F300002060200C0C00406060601001010204080
:101F40008080040606060100609090909060030671
:101F50000606010040C0404040E0040606060100BD
:101F60006090102040F0040606060100F02060108A
:101F700010E005060606000010305090F810040628
:101F800006060100F080E01010E0040606060100DD
:101F90006080E0909060040606060100F0101020BA
:101FA00040400406060601006090609090600406C0
:101FB00006060100609090701060020505060200A0
:101FC000C0C000C0C00207070602FEC0C000C0407B
:101FD00040800505050600001860806018050303B1
:101FE000060001F800F8050505060000C0300830BD
:101FF000C00407070601006090106040004005061D
:10200000060600007090A8B0807005060606000065
:10201000205088F88888050606060000F088F088B9
:1020200088F0040606060100609080809060040637
:1020300006060100E090909090E00406060601007C
:10204000F080E08080F0040606060100F080E08069
:102050008080040606060100609080B0906004064F
:10206000060601009090F09090900306060601008D
:10207000E040404040E00506060600003810101021
:10208000906004060606010090A0C0A0909004068F
:10209000060601008080808080F0050606060000AC
:1020A00088D8A8A8888804060606010090D0B090B9
:1020B00090900506060600007088888888700406DF
:1020C00006060100E09090E080800407070601FF0B
:1020D000609090D0B06010040606060100E0909079
:1020E000E090900406060601006090402090600594
:1020F0000606060000F8202020202004060606011F
:1021000000909090909060040606060100909090D8
:10211000F060600506060600008888A8A8D8880533
:102120000606060000885020205088050606060096
:1021300000888850202020040606060100F01020A8
:102140004080F0030606060100E080808080E00405
:1021500006060601008080402010100306060601D6
:1021600000E020202020E005030306000320508823
:102170000501010600FEF802020206020480400486
:1021800004040601007090907004060606010080A9
:1021900080E09090E00404040601007080807004E8
:1021A00006060601001010709090700404040601E9
:1021B0000060B0C070040606060100205040E040F8
:1021C000400406060601FE6090907010600406064A
:1021D0000601008080E09090900306060601004012
:1021E00000C04040E00308080601FE2000602020F7
:1021F00020A0400406060601008080A0C0A0900335
:102200000606060100C040404040E0050404060008
:1022100000D0A8A888040404060100E0909090046F
:102220000404060100609090600406060601FEE0CA
:102230009090E080800406060601FE709090701079
:1022400010040404060100A0D080800404040601E8
:102250000070C030E00406060601004040E0405037
:102260002004040406010090909070040404060108
:10227000009090606005040406000088A8A850043F
:102280000404060100906060900406060601FE90BA
:102290009090709060040404060100F02040F00368
:1022A0000707060100204040804040200107070644
:1022B00002FF808080808080800307070601008005
:1022C00040402040408004020206010350A0FFFF6E
:1022D000FFFFFFFFFFFFFFFFFFFFFFFFFFFFFFFF0E
:1022E000FFFFFFFFFFFFFFFFFFFFFFFFFFFFFF00FD
:1022F00000000600070106060602008000808080BC
:10230000800406060601FF2070A0A07020050707C4
:102310000600FF304840F04040F805050506000083
:10232000A8508850A80506060600008850F820F836
:10233000200107070602FF8080800080808004075C
:10234000070601FF708060906010E0030101060144
:1023500005A0060707060000788494A494847803F7
:10236000050506010160A06000E005050506000006
:102370002850A05028040303060100F010100401A7
:1023800001060102F00607070600007884B4A4A441
:102390008478040101060105F004030306010260CC
:1023A00090600507070600FF2020F8202000F803B2
:1023B000050506010140A02040E0030505060101D6
:1023C000C0204020C002020206020440800405052D
:1023D0000601FF9090B0D08005060606000078E860
:1023E000E8682828010101060202800202020602B2
:1023F000FE408003050506010140C04040E00305A2
:102400000506010140A04000E0050505060000A00A
:10241000502850A00508080600FF40C0405070300A
:1024200078100508080600FF40C0405068081038C2
:102430000508080600FFC0204030F030781004077F
:102440000706010020002060809060050707060055
:1024500000402020507088880507070600001020E3
:102460002050708888050707060000205020507013
:1024700088880507070600002850205070888805C6
:1024800007070600005000205070888805070706DF
:10249000000020502050708888050606060000784D
:1024A000A0F0A0A0B80408080601FE60908080900B
:1024B0006020400407070601004020F080E080F023
:1024C0000407070601002040F080E080F0040707C1
:1024D0000601002050F080E080F0040707060100AC
:1024E0005000F080E080F00307070601008040E024
:1024F000404040E00307070601002040E040404024
:10250000E003070706010040A0E0404040E0030769
:1025100007060100A000E0404040E0050606060076
:10252000007048E848487004070706010050A09072
:10253000D0B0909004070706010040206090909072
:102540006004070706010020406090909060040737
:102550000706010020506090909060040707060174
:102560000050A060909090600407070601005000A2
:102570006090909060050505060000885020508806
:102580000408080601FF1070B0B0D0D0E080040746
:102590000706010040209090909060040707060114
:1025A00000204090909090600407070601002050A2
:1025B0009090909060040707060100500090909062
:1025C0009060050707060000102088502020200496
:1025D000060606010080E09090E0800406060601F1
:1025E000006090A0A090A004070706010040200012
:1025F00070909070040707060100204000709090D2
:1026000070040707060100205000709090700407C6
:102610000706010050A000709090700406060601A5
:1026200000500070909070040707060100205020B1
:102630007090907005040406000070A8B07804063D
:10264000060601FE70808070204004070706010026
:1026500040200060B0C07004070706010020400061
:1026600060B0C07004070706010020500060B0C0D1
:1026700070040606060100500060B0C07003070732
:10268000060100804000C04040E00307070601004B
:10269000204000C04040E003070706010040A000C2
:1026A000C04040E0030606060100A000C04040E034
:1026B000040707060100306010709090600407075F
:1026C00006010050A000E09090900407070601006A
:1026D0004020006090906004070706010020400041
:1026E0006090906004070706010020500060909001
:1026F0006004070706010050A00060909060040687
:102700000606010050006090906005050506000077
:102710002000F8002004040406010070B0D0E0049A
:1027200007070601004020009090907004070706FC
:1027300001002040009090907004070706010020DF
:102740005000909090700406060601005000909092
:1027500090700409090601FE20400090909070904E
:10276000600408080601FE8080E09090E08080040C
:1027700008080601FE50009090907090600000964E
:102780004300809643000087430000A0C10000B0D2
:10279000C100000000290A002062797465733B20A3
:1027A000637263200053657474696E677320537499
:1027B0006F726564202800454550524F4D2064617A
:1027C000746173697A65206572726F722E0A0029CE
:1027D0000A002062797465733B20637263200020D5
:1027E00073746F7265642073657474696E677320A7
:1027F00072657472696576656420280020286361BB
:102800006C63756C6174656429210A0020213D2088
:1028100000454550524F4D20435243206D69736D22
:1028200061746368202D202873746F726564292099
:10283000002053697A653A2000496E6465783A2031
:1028400000204D61726C696E3D563637290A00458D
:102850004550524F4D2076657273696F6E206D69D9
:10286000736D617463682028454550524F4D3D009B
:10287000454550524F4D20496E697469616C697AC3
:1028800065640A0048617264636F6465642044652E
:102890006661756C742053657474696E6773204C3F
:1028A0006F616465640A0028230000282300006427
:1028B000000000282300000000964300009643001B
:1028C0000040400000C8410000C9420000C9420069
:1028D00000C8440000D2433A0A0020204D3630336D
:1028E0002000205300205A002059002058002020AA
:1028F0004D3432352046004261636B6C6173682051
:10290000636F6D70656E736174696F6E3A0A002053
:1029100055004C0046696C616D656E74206C6F618A
:10292000642F756E6C6F6164206C656E677468737C
:102930003A0A0020204D393030204B004C696E653A
:10294000617220416476616E63653A0A0020204D11
:10295000383531205A005A2D50726F6265204F660B
:10296000667365740020440020490020204D3330F8
:102970003420500020440020490020204D333031C5
:102980002050005049442073657474696E67733A2F
:102990000A0020460020420020480020204D31340B
:1029A000352053004D6174657269616C2068656102
:1029B00074757020706172616D65746572733A0A26
:1029C00000204A0020204732392057204900205A51
:1029D0000020204D3432302053004175746F204266
:1029E0006564204C6576656C696E673A0A0020451F
:1029F00000205A0020590020580020540020530085
:102A000020204D32303520420020453C6D61785FFA
:102A1000655F6A65726B3E0020583C6D61785F7837
:102A20005F6A65726B3E20593C6D61785F795F6AC1
:102A300065726B3E205A3C6D61785F7A5F6A6572A1
:102A40006B3E00416476616E6365643A20423C6D82
:102A5000696E5F7365676D656E745F74696D655FE0
:102A600075733E20533C6D696E5F66656564726187
:102A700074653E20543C6D696E5F74726176656C5E
:102A80005F66656564726174653E00205400205283
:102A90000020204D323034205000416363656C6566
:102AA000726174696F6E2028756E6974732F73324A
:102AB000293A20503C7072696E745F616363656C83
:102AC0003E20523C726574726163745F616363653A
:102AD0006C3E20543C74726176656C5F6163636523
:102AE0006C3E0A00204500205A0020590020204D4D
:102AF0003230312058004D6178696D756D20416329
:102B000063656C65726174696F6E2028756E697497
:102B1000732F7332293A0A00204500205A002059A9
:102B20000020204D3230332058004D6178696D759A
:102B30006D206665656472617465732028756E69C1
:102B400074732F73293A0A0053746570732070658B
:102B50007220756E69743A0A0020204D3134392094
:102B600043203B20556E69747320696E2043656C69
:102B7000736975730A0020286D6D29002020473283
:102B800031202020203B20556E69747320696E200F
:102B90006D6D00486F6D696E67206661696C656474
:102BA000006F70656E0054524947474552454400D6
:102BB0003A20007A5F6D696E00795F6D6178007907
:102BC0005F6D696E00785F6D617800785F6D696E2A
:102BD000005265706F7274696E6720656E647374FD
:102BE0006F70207374617475730A00205A3A002064
:102BF000593A0020436F756E7420583A0020453AC8
:102C000000205A3A0020593A00583A0020746F6F59
:102C1000206C6F6E6720657874727573696F6E20B3
:102C200070726576656E7465640A0020636F6C640B
:102C300020657874727573696F6E20707265766541
:102C40006E7465640A00486F6D65202573257325D1
:102C500073206669727374002066697273740A0067
:102C6000486F6D6520000000A0C100809643000001
:102C70000000000048420000484200004040576108
:102C8000726E696E673A20486F6D696E6720427593
:102C90006D702044697669736F72203C20310A00A0
:102CA0000202040000A0400000A04000000040001C
:102CB00000A0430080A14300008743FF01FF24F4EC
:102CC000D43050C38E20C2A24017828B7011127A6A
:102CD000910D816CD90AA861E108C7586607615156
:102CE00043061E4B5D05C145A7041A411104093D69
:102CF0009803713931034036DB0265339102D430D9
:102D00005402802E1D02632CEE01752AC501B028E5
:102D1000A001102781018F2564012B244B01E022A3
:102D20003401AC211F018D200D01801FFC00841E89
:102D3000ED00971DDF00B81CD200E61BC600201B6B
:102D4000BC00641AB200B219A8000A19A0006A18DF
:102D50009900D117910040178B00B51684003116E9
:102D60007E00B31579003A157300C7146F0058142C
:102D70006A00EE1366008813630025135E00C71215
:102D80005B006C12570015125400C11151007011F4
:102D90004F0021114B00D61049008D1047004610FE
:102DA000440002104200C00F4000800F3E00420F5E
:102DB0003C00060F3B00CB0E3800930E37005C0E34
:102DC0003500270E3400F30D3200C10D3100900D97
:102DD0003000600D2E00320D2D00050D2C00D90C99
:102DE0002B00AE0C2900850C29005C0C2700350C4B
:102DF00027000E0C2600E80B2400C40B2400A00BB7
:102E000023007D0B23005A0B2100390B2100180BE6
:102E10002000F80A1F00D90A1E00BB0A1E009D0AE6
:102E20001D00800A1D00630A1C00470A1B002C0AB3
:102E30001B00110A1A00F7091A00DD091900C4095C
:102E40001900AB091900920917007B0918006309E2
:102E500017004C09160036091600200916000A0949
:102E60001500F5081500E0081400CC081400B80897
:102E70001400A4081400900813007D0812006B08C9
:102E800013005808120046081200340811002308E5
:102E900011001208110001081100F0071000E007EE
:102EA0001000D0071000C0071000B0070F00A107E6
:102EB000100091070E0083070F0074070F006507CD
:102EC0000E0057070E0049070E003B070D002E07A6
:102ED0000E0020070D0013070D0006070D00F90670
:102EE0000C00ED060D00E0060C00D4060C00C80630
:102EF0000C00BC060C00B0060C00A4060B009906E2
:102F00000C008D060B0082060B0077060B006C068A
:102F10000B0061060A0057060B004C060A00420629
:102F20000A0038060A002E060A0024060A001A06BD
:102F30000A001006090007060A00FD050900F4054D
:102F40000900EB050900E2050900D9050900D005D3
:102F50000900C7050900BE050900B5050800AD0553
:102F60000800A50509009C050800940508008C05CB
:102F70000800840508007C050800740508006C053D
:102F80000700650508005D050700560508004E05A9
:102F90000700470507004005080038050700310510
:102FA00007002A050700230507001C050600160573
:102FB00007000F0507000805060002050700FB04CF
:102FC0000600F5040700EE040600E8040600E2042B
:102FD0000700DB040600D5040600CF040600C90480
:102FE0000600C3040600BD040600B7040600B104D1
:102FF0000500AC040600A6040600A00405009B041E
:10300000060095040500900406008A040500850466
:103010000500800406007A040500750405007004AC
:1030200005006B04050066040500610405005C04EE
:10303000050057040500520405004D04050048042E
:103040000500430405003E0404003A04050035046D
:103050000500300404002C040500270404002304A8
:1030600005001E0404001A040400160405001104DF
:1030700004000D0404000904050004040400000415
:103080000400FC030400F8030400F4030400F0034C
:103090000400EC030400E8030400E4030400E0037C
:1030A0000400DC030400D8030400D4030400D003AC
:1030B0000400CC030400C8030300C503030024F488
:1030C00004D9201BC40C5C0E9804C4095F02650778
:1030D0007101F405F900FB04B30048048700C10343
:1030E00069005803550003034500BE023A008402FC
:1030F000310053022A002902250004022000E401C5
:103100001C00C8011900AF011700980114008401C8
:103110001300710110006101100051010E00430104
:103120000D0036010B002B010B0020010B001501D7
:1031300009000C01090003010800FB000800F3006E
:103140000800EB000700E4000600DE000600D800DF
:103150000600D2000600CC000500C7000500C20032
:103160000500BD000400B9000400B5000400B10072
:103170000400AD000400A9000400A5000300A200A3
:1031800003009F0004009B000300980003009500CB
:10319000020093000300900003008D0002008B00EA
:1031A0000300880002008600020084000300810002
:1031B00002007F0002007D0002007B000200790017
:1031C0000200770001007600020074000200720025
:1031D0000100710002006F0002006D0001006C0030
:1031E00002006A0001006900020067000100660039
:1031F000010065000100640002006200010061003E
:103200000100600001005F0002005D0001005C0041
:1032100001005B0001005A00010059000100580044
:103220000100570001005600010055000100540044
:103230000100530000005300010052000100510042
:103240000100500001004F0001004E0000004E0040
:1032500001004D0001004C0001004B0000004B003C
:1032600001004A0001004900010048000000480038
:103270000100470001004600000046000100450033
:10328000000045000100440001004300000043002D
:103290000100420000004200010041000000410026
:1032A0000100400001003F0000003F0001003E001F
:1032B00000003E0001003D0000003D0001003C0018
:1032C00000003C0000003C0001003B0000003B000F
:1032D00001003A0000003A00010039000000390006
:1032E00001003800000038000000380001003700FD
:1032F00000003700010036000000360000003600F4
:1033000001003500000035000000350001003400E8
:1033100000003400000034000100330000003300DE
:1033200000003300010032000000320000003200D3
:1033300001003100000031000000310001003000C8
:10334000000030000000300001002F0000002F00BE
:1033500000002F0000002F0001002E0000002E00B2
:1033600000002E0001002D0000002D0000002D00A7
:1033700000002D0001002C0000002C0000002C009B
:1033800000002C0001002B0000002B0000002B008F
:1033900000002B0001002A0000002A0000002A0083
:1033A00000002A0001002900000029000000290077
:1033B000000029000000290001002800000028006A
:1033C000000028000000280000002800010027005D
:1033D0000000270000002700000027000000270051
:1033E0000100260000002600000026000000260044
:1033F0000000260001002500000025000000250037
:103400000000250000002500000025000100240028
:10341000000024000000240000002400000024001C
:10342000010023000000230000002300000023000F
:103430000000230000002300000023000100220000
:1034400000002200000022000000220000002200F4
:1034500000002200010021000000210000002100E6
:1034600000002100000021000000210000002100D8
:1034700001002000000020000000200000002000CB
:1034800000002000000020000000200000002000BC
:1034900001001F0000001F0000001F0000001F00AF
:1034A00000001F0000001F0000001F0001001E00A0
:1034B00000001E0000001E0000001E000000C231BF
:1034C00000001C260000F4190000D80F0000EB08D3
:1034D0000000C004000075020000400100004D69BA
:1034E00063726F737465707320756E617661696C59
:1034F00061626C650A0045313A200045303A20008F
:103500005A3A2000593A20004D53312C4D53322C59
:103510004D53332050696E730A583A200062656437
:10352000002C2073797374656D2073746F707065EF
:103530006421204865617465725F49443A20004205
:1035400065642068656174696E67206661696C6591
:10355000640048656174696E67206661696C6564C2
:103560000042454420544845524D414C2052554E4E
:103570004157415900546865726D616C2052756EF7
:103580006177617900486F74656E64204865617485
:10359000696E67206661696C65640048656174697D
:1035A0006E67206661696C656400486F74656E645F
:1035B00020544845524D414C2052554E4157415997
:1035C00000546865726D616C2052756E6177617927
:1035D000001000AD0330016A0150022B0170030A94
:1035E000019004F500B005E500D006D800F007CE44
:1035F000001009C500300ABE00500BB700700CB1B6
:1036000000900DAB00B00EA600D00FA200F0109DF0
:103610000010129900301395005014920070158E0E
:103620000090168B00B0178700D0188400F0198125
:1036300000101B7E00301C7B00501D7900701E7630
:1036400000901F7300B0207000D0216E00F0226B3C
:103650000010246900302566005026630070276141
:103660000090285E00B0295C00D02A5900F02B564B
:1036700000102D5400302E5100502F4E0070304B52
:103680000090314800B0324500D0334200F0343E63
:103690000010363B00303737005038330070392E79
:1036A00000903A2900B03B2300D03C1B00F03D11B4
:1036B00000103F0100F03F0000486F74656E642009
:1036C0004572723A204D415854454D500045727232
:1036D0003A204D415854454D5020424544004D41FB
:1036E0005854454D5020747269676765726564006F
:1036F000486F74656E64204572723A204D494E548D
:10370000454D50004572723A204D494E54454D503A
:1037100020424544004D494E54454D502074726935
:10372000676765726564004D383420582059205A07
:10373000204500202F002042403A0020403A00203F
:10374000573A007C3C3E5E2B3D3F2F5B5D3B2C2A75
:10375000225C001000C90210012C014001220170FE
:10376000011801B0010E01F00104015002FA00B08D
:1037700002F0003003E600D003DC009004D20070B9
:1037800005C800A006BE000008B400B009AA00D019
:103790000BA000600E960060118C000015820020C6
:1037A000197800C01D6E00A0226400B0275A009056
:1037B0002C500000314600E0343C001038320090BC
:1037C0003A2800603C1E00A03D1400803E0A002004
:1037D0003F000043616E6E6F74206F70656E2073E2
:1037E0007562646972200053442063617264206FC3
:1037F0006B0A006F70656E526F6F74206661696C42
:1038000065640A00766F6C756D652E696E6974204B
:103810006661696C65640A00534420696E697420AE
:103820006661696C0A004D3234004D3233202573D5
:103830000057726974696E6720746F2066696C65E1
:103840003A20002E0A006F70656E206661696C6513
:10385000642C2046696C653A20002E0A006F706562
:103860006E206661696C65642C2046696C653A203F
:103870000046696C652073656C65637465640A0055
:103880002053697A653A200046696C65206F70653F
:103890006E65643A2000667265736800646F696ED5
:1038A00067002066696C653A20004E6F77200045FE
:1038B0004E4420535542524F5554494E450A00221A
:1038C00020706F73002220706172656E743A22005E
:1038D000535542524F5554494E452043414C4C207C
:1038E0007461726765743A2200747279696E672038
:1038F000746F2063616C6C207375622D67636F64F5
:10390000652066696C6573207769746820746F6FD1
:10391000206D616E79206C6576656C732E204D414B
:1039200058206C6576656C2069733A310A00202056
:10393000506C616E6E65724275666665724279742E
:1039400065733A20002046726565204D656D6F7283
:10395000793A2000436F6D70696C65643A20536555
:103960007020313120323032360A00207C204175FF
:1039700074686F723A2028416C657068204F626AE3
:103980006563747320496E632E2C204C756C7A42EB
:103990006F7420476974205265706F7369746F7219
:1039A00079290A0000204C61737420557064617499
:1039B00065643A2000322E302E302E3134340A0025
:1039C0004D61726C696E0020536F66747761726529
:1039D0002052657365740A00205761746368646FD0
:1039E000672052657365740A002042726F776E20FB
:1039F0006F75742052657365740A0020457874658C
:103A0000726E616C2052657365740A00506F776541
:103A10007255700A0073746172740A006175746F74
:103A200025632E67006572726F7220777269746900
:103A30006E6720746F2066696C650A00446F6E655E
:103A400020736176696E672066696C652E0A004D89
:103A5000323900456E6473746F70732025632025BE
:103A60006320256320256300205A3A0020593A003C
:103A700020583A00656E6473746F707320686974BF
:103A80003A20004739310A4730205A31352046362E
:103A900030300A4739300A47302058313730205902
:103AA0003239302046333030300A4D3131372050F2
:103AB00072696E742061626F727465642E0000001A
:103AC0000A0B02090C0D0E08070304010000000098
:103AD00000000000000000000000000000000000E6
:103AE00000000000000000000000121110000000A3
:103AF00000000000000000000000000000000000C6
:103B000000000000000000000000000000000000B5
:103B1000000000004D6F766520302E3032356D6D1F
:103B2000004D6F766520302E316D6D004D6F7665DE
:103B300020316D6D004D6F76652031306D6D004D1B
:103B40006F7665206178697300486F74656E6420D4
:103B5000746F6F20636F6C64004578747275646570
:103B60007220004D6F7665205A004D6F76652059A2
:103B7000004D6F76652058004175746F6C657665F1
:103B80006C206661696C65640A004175746F6C65D0
:103B900076656C206661696C656400220A00556E6A
:103BA0006B6E6F776E20636F6D6D616E643A20226D
:103BB0000000000000000000000000000000000005
:103BC00000000000000000000000000000000000F5
:103BD000000000000C000000000000000C000000CD
:103BE00000000000120000000000000023000000A0
:103BF0000000000021000000000000004C800000D8
:103C0000000000005E800000000000009240000004
:103C100000000000A1400000000000012120000081
:103C2000000000027F900000000000020010000071
:103C300000000007FFF8000000000004000800007A
:103C4000000000080004000000000008000600005A
:103C50000000001000020000000000301E01000003
:103C6000000000207F81000000000041FFE0800094
:103C700000000043FCF08000000000873B7840001B
:103C80000000018EDBFC60000000010FEBCC200087
:103C90000000021FEDB610000000021FDEB610008B
:103CA00000000439CD7F080000000436E0FF080062
:103CB0000000087EC0BB84000000187F005D860005
:103CC0000000107FC0ED82000000203CC0730100A6
:103CD0000000203B337F01000000701BE77E038063
:103CE0000000C81DEEDE04C00000880FDEDC0440CA
:103CF0000001240FDF3C092000012607DBF8192012
:103D000000027203E7F0139000025101FFE02290DD
:103D1000000489007F802448000904801E00482494
:103D2000000BFE400000DFF40010004000008002A5
:103D3000001FFFFFFFFFFFFE00000000000000006B
:103D40000000000000000000000000000000000073
:103D5000001022103C3C0E1F0010221004221104FF
:103D6000001022100822110400102210083C110437
:103D70000010221010221104001022102022110421
:103D8000001E1C1E3C3C0E04000000000000000051
:103D90000000000000000000000000000000000023
:103DA0000000000000000000000000000000000013
:103DB0000000000000000000000000000000000003
:103DC00000000000000000000000000000000000F3
:103DD00000000000000000000000000000000000E3
:103DE00000000000000000000000000000000020B3
:103DF000746F6F206C6F6E6720657874727573696D
:103E00006F6E2070726576656E7465640A0020635B
:103E10006F6C6420657874727573696F6E20707250
:103E20006576656E7465640A00204500205A00209E
:103E30005900204D39322058002E0A006F70656EEF
:103E4000206661696C65642C2046696C653A2000C7
:103E500000002200250028002B002E003100340035
:103E600002010000050108010B01000021002400EF
:103E700027002A002D00300033000101000004015A
:103E800007010A01050505050705080808080202DB
:103E900002020A0A080804040404010101010101E4
:103EA00001010303030303030303040707070C0CC7
:103EB0000C0C0C0C0C0C020202020606060606068E
:103EC00006060B0B0B0B0B0B0B0B07070A0A0A0A58
:103ED0000A0A050505040404080801021020200848
:103EE0000810204010204080020102010804020155
:103EF00001020408102040808040201008040201C4
:103F0000800402018040201008040201080402011C
:103F100001020408102040800102040810204080A3
:103F200010080408801020400440801020400480C5
:103F3000486F74656E6420544845524D414C205280
:103F4000554E415741590042454420544845524D31
:103F5000414C2052554E4157415900546865726D8D
:103F6000616C2052756E61776179002F2F616374E7
:103F7000696F6E3A0000060C00FE07022603BC01C2
:103F80007FFE08FE08FE05080806000040F0C8880D
:103F900088987810050808060000C0F88888888886
:103FA00088F80505050600012030F83020050808CE
:103FB0000600002070F820202020E00509090600F6
:103FC000FF2070A8A8B888887020050606060001A2
:103FD000E08CEA8C8A0A0509090600FFF8A888889F
:103FE000888888A8F8050A0A0600FE20505050501C
:103FF00088A8A8887003030306000340A040FFFFC1
:10400000FFFFFFFFFFFFFFFFFFFFFFFFFFFFFFFFC0
:10401000FFFFFFFF0000000605FF01070706020083
:1040200080808080800080030303060105A0A0A09B
:1040300005060606000050F85050F850050909061C
:1040400000FF2070A8A07028A870200507070600B0
:1040500000C8C8102040989805070706000040A037
:10406000A040A89068010303060205808080030930
:10407000090601FF2040408080804040200309095C
:104080000601FF80404020202040408005070706B1
:10409000000020A8702070A820050505060001205A
:1040A00020F820200203030601FFC0408005010123
:1040B000060003F8020202060100C0C00507070659
:1040C000000008101020404080050707060000701F
:1040D0008898A8C8887003070706010040C04040C0
:1040E0004040E0050707060000708808102040F8EF
:1040F000050707060000F808103008887005070754
:1041000006000010305090F8101005070706000058
:10411000F880F00808887005070706000030408026
:10412000F0888870050707060000F80810102020A6
:1041300020050707060000708888708888700507CA
:1041400007060000708888780810600205050601DF
:1041500000C0C000C0C00206060601FFC0C000C00B
:10416000408003050506010120408040200503032F
:10417000060002F800F80305050601018040204012
:104180008005070706000070881020200020050722
:10419000070600007088B8A8B880700507070600F9
:1041A00000708888F8888888050707060000F048AE
:1041B00048704848F0050707060000708880808036
:1041C0008870050707060000F04848484848F00591
:1041D0000707060000F88080F08080F805070706D2
:1041E0000000F88080F080808005070706000070DE
:1041F000888080988870050707060000888888F8FE
:10420000888888030707060100E04040404040E0FE
:10421000050707060000381010101090600507070A
:104220000600008890A0C0A090880507070600003F
:10423000808080808080F805070706000088D8A865
:10424000888888880507070600008888C8A8988895
:104250008805070706000070888888888870050729
:1042600007060000F08888F08080800507070600B8
:104270000070888888A89068050707060000F08805
:1042800088F0A090880507070600007088807008F5
:104290008870050707060000F82020202020200550
:1042A0000707060000888888888888700507070641
:1042B000000088888888505020050707060000887D
:1042C000888888A8A850050707060000888850201D
:1042D0005088880507070600008888502020202085
:1042E000050707060000F80810204080F8030909B8
:1042F0000601FFE080808080808080E0050707065F
:104300000000804040201010080309090601FFE06A
:1043100020202020202020E0050303060005205057
:10432000880501010600FEF803030306010580402D
:10433000200505050600007008788878050707063F
:1043400000008080F0888888F00505050600007070
:10435000808088700507070600000808788888882C
:10436000780505050600007088F0807005070706CF
:104370000000304840E04040400507070600FE705E
:104380008888887808700507070600008080F08814
:104390008888880307070601004000C0404040E0CD
:1043A0000409090601FE100030101010109060057D
:1043B000070706000080808890E0908803070706C2
:1043C0000100C04040404040E0050505060000D027
:1043D000A8A8A8A8050505060000B0C88888880513
:1043E000050506000070888888700507070600FE2E
:1043F000F0888888F080800507070600FE788888A6
:1044000088780808050505060000B0C8808080058A
:10441000050506000078807008F005070706000013
:104420002020F8202020180505050600008888882F
:104430009868050505060000888888502005050550
:104440000600008888A8A8500505050600008850C9
:104450002050880507070600FE8888885020408085
:10446000050505060000F8102040F80309090601BB
:10447000FF2040404080404040200109090602FFE3
:104480008080808080808080800309090601FF8011
:10449000404040204040408005030306000248A8F9
:1044A00090FF01050800FF060121023520FFFF07EC
:1044B000FF06FF090050221656808080800080157C
:1044C0003353A0A0A00257575050F850F850500254
:1044D00057572070A07028702013355580A040A039
:1044E0002002475740A0A040A0A050251353808031
:1044F00080122656408080808040122656804040A0
:104500004040800245559060F06090025555202053
:10451000F82020113353604080044151F01133538F
:1045200040E040024656101020408080123656402F
:10453000A0A0A0A04012365640C0404040E0024635
:10454000566090106080F0024656F0206010906037
:104550000246562060A0F02020024656F080E0106F
:1045600090600246566080E0909060024656F010DF
:10457000202040400246566090609090600246566F
:10458000609090701060122555C0C000C0C01136F8
:104590005660600060408012365620408080402087
:1045A000034353F000F01236568040202040801222
:1045B000365640A020400040015858304898A8A8DE
:1045C000904030024656609090F09090024656E03F
:1045D00090E09090E00246566090808090600246A5
:1045E00056E090909090E0024656F080E08080F097
:1045F000024656F080E0808080024656609080B08F
:1046000090600246569090F0909090123656E0409E
:10461000404040E002465670202020A0400246560E
:1046200090A0C0A0A0900246568080808080F002BA
:10463000465690F0F090909002465690D0F0B0B070
:1046400090024656609090909060024656E090909E
:10465000E08080014757609090D0B06010024656CD
:10466000E09090E09090024656609040209060125A
:104670003656E04040404040024656909090909020
:1046800060024656909090906060024656909090DE
:10469000F0F09002465690906060909002565688D6
:1046A0008850202020024656F010204080F012361C
:1046B00056E080808080E0024656808040201010C6
:1046C000123656E020202020E016325240A0014150
:1046D00051F016225280400244547090907002466D
:1046E000568080E09090E0123454608080600246F2
:1046F0005610107090907002445460B0C060024632
:1047000056205040E04040014555609070106002D6
:1047100046568080E09090901236564000C040404F
:10472000E01137572000202020A04002465680800C
:1047300090E09090123656C040404040E002545401
:10474000D0A8A8A8024454E09090900244546090ED
:104750009060014555E090E0808001455570907073
:104760001010024454A0D0808012345460C020C085
:104770000246564040E040502002445490909070D1
:10478000123454A0A0A04002545488A8A850024457
:104790005490606090014555909070906002445430
:1047A000F02040F0024757304020C0204030221611
:1047B00056808080808080024757C0204030402053
:1047C000C006425250A0FFFFFFFFFFFFFFFFFFFFA9
:1047D000FFFFFFFFFFFFFFFFFFFFFFFFFFFFFFFFE9
:1047E000FFFFFFFFFFFFFF090050221656800080E9
:1047F0008080800146562070A0A07020024656207E
:1048000050E04050A00255558870507088025656AE
:104810008850F820F8202217578080800080808000
:104820000247577080E0907010E0173151A0025697
:104830005670A8C8C8A87014355560A06000E00381
:10484000435350A050123353E02020143151E00262
:10485000565670E8D8E8D870173151E015335340F8
:10486000A04012355540E04000E014355540A020EE
:1048700040E0143555C020C020C0162252408001AF
:104880004555909090E08002565678E8E8682828D0
:1048900024115180112252408014355540C04040AF
:1048A000E014355540A04000E0034353A050A0025F
:1048B0004757808080A060F0200247578080A0D0BA
:1048C00010207002475780408060A0F020123656BA
:1048D00040004080A04002475740206090F09090F8
:1048E00002475720406090F09090024757609060D8
:1048F00090F0909002475750A06090F0909002473F
:104900005790006090F0909002475760906090F050
:10491000909002465670A0A0F0A0B001475760905A
:1049200080809060400247574020F080E080F00295
:1049300047572040F080E080F00247576090F080B9
:10494000E080F00247579000F080E080F012375787
:104950008040E0404040E01237572040E040404077
:10496000E012375740A0E0404040E0123757A00027
:10497000E0404040E00256567048E8484870024720
:104980005750A090D0B09090024757402060909030
:1049900090600247572040609090906002475760B7
:1049A00090609090906002475750A0609090906007
:1049B00002475790006090909060123353A040A03F
:1049C00002465670B0B0D0D0E002475740209090D9
:1049D0009090600247572040909090906002475717
:1049E00060909090909060024757900090909090C7
:1049F000600257571020885020202002465680E041
:104A00009090E0800246566090A0A090A002475788
:104A100040200070909070024757204000709090A6
:104A2000700247572050007090907002475750A076
:104A3000007090907002465650007090907002473F
:104A40005760906070909070025454F068B0781184
:104A50003555608080604002475740200060B0C0FC
:104A60006002475720400060B0C060024757609026
:104A70000060B0C060024656500060B0C06012379F
:104A800057804000C04040E0123757204000C040EF
:104A900040E012375740A000C04040E0123656A018
:104AA00000C04040E0024757A040A0107090600254
:104AB000475750A000E09090900247574020006078
:104AC00090906002475720400060909060024757E6
:104AD0006090006090906002475750A000609090F6
:104AE000600246569000609090601235554000E09C
:104AF000004002445470B0D0E0024757402000907C
:104B00009090700247572040009090907002475755
:104B10006090009090907002465690009090907037
:104B20000148582040009090709060014757808065
:104B3000E090E08080014757900090907090600175
:104B4000050700FE0500FB01F220FFFE05FE05FE45
:104B50000200400215258080800080053242A0A01E
:104B600002556550F850F8500146562070C030E0AC
:104B7000200255659010204048025565608068907D
:104B80006805122280800225354080808040022501
:104B9000358040404080043343A040A0033343406D
:104BA000E0400122324080043141E00211218002C4
:104BB0005565081020408002455560909090600235
:104BC0002535C040404040024555E0106080F0026D
:104BD0004555E0106010E00245552060A0F020022D
:104BE0004555F080E010E00245556080E09060029D
:104BF0004555F0102040400245556090609060029D
:104C000045556090701060031323800080021424C7
:104C1000800080800235452040804020033343E0FF
:104C200000E00235458040204080024555E010609C
:104C300000400255657088B8A87002455560909094
:104C4000F090024555E090E090E0023545608080AC
:104C50008060024555E0909090E0023545E080E0AC
:104C600080E0023545E080E080800245557080B0EC
:104C700090700245559090F09090023545E040408C
:104C800040E0024555301010906002455590A0C09C
:104C9000A09002354580808080E002556588D8A8C4
:104CA000888802455590D0B090900245556090900C
:104CB0009060024555E09090E080014656609090EB
:104CC000906010024555E09090E09002455570804C
:104CD0006010E0023545E04040404002455590906C
:104CE0009090600245559090A0A04002556588A81C
:104CF000A8A850024555909060909002455590901C
:104D0000701060023545E0204080E0022535C0800B
:104D10008080C00255658040201008022535C040C3
:104D20004040C005324240A0024151F0052232808D
:104D3000400244547090907002455580E09090E09D
:104D4000023444608080600245551070909070027B
:104D5000445460B0C0600235452040E04040004609
:104D60005670909070106002455580E090909002CF
:104D7000152580008080800027374000404040405B
:104D8000800245558090A0E09002152580808080AB
:104D900080025464F0A8A8A8024454E090909002C5
:104DA000445460909060004656E09090E08080000F
:104DB0004656709090701010023444A0C08080025B
:104DC000445470C030E002354540E0404020024489
:104DD00054909090700244549090A040025464A863
:104DE000A85050023444A04040A0004656909090F5
:104DF000701060024454F02040F00235456040805D
:104E000040600215258080808080023545C04020AA
:104E100040C005425250A0FFFFFFFFFFFFFFFFFF12
:104E2000FFFFFFFFFFFFFFFFFFFFFFFFFFFFFFFF92
:104E3000FFFFFFFFFFFFFFFF020040FFFFFFFFFF3D
:104E4000FFFFFFFFFFFFFFFFFFFFFFFFFFFFFFFF72
:104E5000FFFFFFFFFFFFFFFFFFFFFFFFFFFFFFFF62
:104E6000FFFFFFFFFFFFFFFFFFFFFFFFFFFFFFFF52
:104E7000FFFFFFFFFFFFFFFFFFFFFFFFFFFFFFFF42
:104E8000FFFFFFFFFFFFFFFFFFFFFFFFFFFFFFFF32
:104E9000FFFFFFFFFFFFFFFFFFFF01060D00FE0901
:104EA000016602D620FFFE0BFE0AFE0D00602219ED
:104EB00069808080808080800080183363A0A0A0FB
:104EC0000357675050F850F850500259692078A0A5
:104ED000A0702828F02002596948A850102040509E
:104EE000A89002586840A0A040A09890682813633A
:104EF000808080113B6B20404080808080804040DB
:104F000020113B6B80404020202020204040800624
:104F1000556520A870A8200455652020F820201190
:104F20003363604080065161F811336340E0400212
:104F300059690808101020404080800259692050AB
:104F4000888888888850200259692060A020202005
:104F50002020F80259697088880810204080F802E3
:104F60005969F808102070080888700259691010F3
:104F700030505090F81010025969F88080B0C8087D
:104F800008887002596970888080F088888870026B
:104F90005969F80810102020404040025969708873
:104FA000888870888888700259697088888878082D
:104FB00008887011386840E040000040E040113837
:104FC0006840E040000060408002596908102040BD
:104FD0008040201008045464F80000F802596980E9
:104FE00040201008102040800259697088880810FD
:104FF0002020002002596970888898A8A8B080787D
:105000000259692050888888F8888888025969F090
:1050100048484870484848F0025969708880808044
:1050200080808870025969F048484848484848F0EC
:10503000025969F8808080F0808080F8025969F810
:10504000808080F0808080800259697088808080B4
:105050009888887002596988888888F8888888883C
:10506000123969E040404040404040E00259693810
:105070001010101010109060025969888890A0C01C
:10508000A09088880259698080808080808080F824
:105090000259698888D8A8A88888888802596988A8
:1050A000C8C8A8A89898888802596970888888888C
:1050B00088888870025969F0888888F080808080AC
:1050C000015A6A70888888888888A8700802596997
:1050D000F0888888F0A0908888025969708880805C
:1050E0007008088870025969F820202020202020AC
:1050F0002002596988888888888888887002596958
:10510000888888885050502020025969888888886B
:10511000A8A8A8A8500259698888505020505088E3
:10512000880259698888505020202020200259691F
:10513000F808101020404080F8113B6BE080808020
:10514000808080808080E00259698080404020100B
:10515000100808113B6BE020202020202020202078
:10516000E0085363205088015161F82A2262804090
:10517000025666700878889868025969808080F0C5
:1051800088888888F0025666708880808870025906
:10519000690808087888888888780256667088F8D0
:1051A00080887002596930484040F04040404000DB
:1051B000586870888888780888700259698080806B
:1051C000B0C8888888881238684000C04040404095
:1051D000E0004A6A100030101010109090600259E0
:1051E0006980808090A0C0A09088123969C040403A
:1051F0004040404040E0025666D0A8A8A8A88802D7
:105200005666B0C8888888880256667088888888FC
:1052100070005868F0888888F0808080005868782E
:1052200088888878080808025666B0C88080808020
:105230000256667088601088700258684040F040DE
:1052400040404830025666888888889868025666CA
:105250008888885050200256668888A8A8A85002DE
:10526000566688502020508800586888888898683A
:10527000088870025666F810204080F8015B6B18B1
:1052800020202020C0202020201822196980808022
:10529000808080808080015B6BC0202020201820CF
:1052A000202020C008536348A890FFFFFFFFFFFFA6
:1052B000FFFFFFFFFFFFFFFFFFFFFFFFFFFFFFFFFE
:1052C000FFFFFFFFFFFFFFFFFFFFFF0D0060221941
:1052D000698000808080808080800358682070A86A
:1052E000A0A0A8702002596930484040E0404048E2
:1052F000B00356668870505070880259698888508B
:1053000050F820F820202219698080808000808059
:105310008080124A6A609080609090601090601A5D
:105320003262A0A00359697088A8D8C8D8A888702C
:10533000045767700878887800F80356662850A0EC
:10534000A05028045363F80808163161E003596936
:105350007088E8D8D8E8D888700A5161F817446492
:10536000609090600357672020F8202000F80735F0
:105370006540A02040E007356540A04020C02A22BB
:105380006240800058688888888898E88080025940
:105390006978E8E8E8E868282828262161C0202202
:1053A00062408007356540C04040E0045767708820
:1053B00088887000F8035666A050282850A0025A2A
:1053C0006A40C04040E00818283808025A6A40C0C5
:1053D0004040E01028081038025A6A40A04020A03F
:1053E0004818283808025969200020204080888801
:1053F00070025A6A40200020508888F88888025A33
:105400006A10200020508888F88888025A6A30483C
:105410000020508888F88888025A6A285000205056
:105420008888F88888025A6A50500020508888F886
:105430008888025A6A20502020508888F88888027C
:10544000596958A0A0A0B0E0A0A0B8005B6B70881C
:10545000808080808088702040025A6A402000F856
:105460008080F08080F8025A6A102000F88080F076
:105470008080F8025A6A304800F88080F08080F816
:10548000025A6A505000F88080F08080F8123A6A20
:10549000804000E04040404040E0123A6A20400036
:1054A000E04040404040E0124A6A609000E04040E6
:1054B000404040E0123A6AA0A000E0404040404036
:1054C000E0025969F0484848E8484848F0025A6AFA
:1054D0002850008888C8A8988888025A6A40200006
:1054E00070888888888870025A6A102000708888BE
:1054F00088888870025A6A3048007088888888884E
:1055000070025A6A28500070888888888870025A09
:105510006A50500070888888888870035565885064
:10552000205088015B6B08709898A8A8A8C8C8701C
:1055300080025A6A40200088888888888870025AC9
:105540006A10200088888888888870025A6A3048E3
:105550000088888888888870025A6A505000888835
:105560008888888870025A6A102000888850202015
:10557000202002596980F0888888F0808080025954
:1055800069609090A0A0908888B00259694020007E
:105590007008788898680259691020007008788827
:1055A00098680259693048007008788898680259EC
:1055B000692850007008788898680259695050002E
:1055C000700878889868025A6A3048300070087805
:1055D000889868025666702870A0A85000586870B5
:1055E000888080887020400259694020007088F8C7
:1055F0008088700259691020007088F880887002D5
:1056000059693048007088F8808870025969505094
:10561000007088F8808870123969804000C040406E
:105620004040E0123969204000C040404040E01254
:105630004969609000C040404040E0123969A0A034
:1056400000C040404040E0025A6A5020601070881C
:1056500088888870025969285000B0C8888888886E
:105660000259694020007088888888700259691042
:1056700020007088888888700259693048007088D6
:1056800088888870025969285000708888888870D6
:1056900002596950500070888888887003576720C5
:1056A0002000F8002020015868087098A8A8C87049
:1056B0008002596940200088888888986802596962
:1056C00010200088888888986802596930480088C6
:1056D0008888889868025969505000888888889816
:1056E00068005B6B102000888888986808887000C4
:1056F0005A6A8080B0C88888C8B08080005B6B50D0
:10570000500088888898680888709E00D00011240E
:105710001FBECFEFD1E2DEBFCDBF00E00CBF13E074
:10572000A0E0B2E0EEEAFFE802E00BBF02C00790A3
:105730000D92A43DB107D9F727E1A4EDB3E001C074
:105740001D92A83EB207E1F71BE2C6E8DBE200E0EB
:1057500006C021970109802FFE010F942D44C53802
:10576000D10780E00807A9F70F94D7330D94C547F8
:105770000C940000FC01A081B1811C92A281B38134
:105780008C918F5F8C930280F381E02D90818CE06F
:10579000989F800D1124EDEDF4E113AE84AF0895D0
:1057A0008091D9038093760B0895609113027091D4
:1057B0001402072E000C880B990B0F94AA3F2AE0C5
:1057C00037ED43E25CE30F940940609376027093F7
:1057D000770280937802909379020895CF93DF93B4
:1057E000EC01CB01BA010F94AA3F0F94A94568833D
:1057F000DF91CF910895CF93DF93EC01CB01BA01F4
:105800000F94AA3F0F94A9456883DF91CF91089523
:1058100080919D1490919E14891B8F7071F49091CA
:105820003A1692FB882780F992FD08C081E090919A
:10583000B006913019F080E0089581E00895CF938B
:10584000DF93EC01CB01BA010F94AA3F20E030E0D6
:1058500048EC51E40F9409400F94A945688379837B
:105860008A839B83DF91CF910895CF93DF93EC01DF
:10587000CB01BA010F94AA3F20E030E048EC52E49B
:105880000F9409400F94A945688379838A839B8389
:10589000DF91CF910895CF93DF93EC01CB01BA0153
:1058A0000F94AA3F2AE037ED43E25CE30F940940EE
:1058B000688379838A839B83DF91CF910895CF9307
:1058C000DF93EC01CB01BA010F94AA3F2AE037ED38
:1058D00043E25CE30F940940688379838A839B8366
:1058E000DF91CF910895CF93DF93EC01CB01BA0103
:1058F0000F94AA3F2DEC3CEC4CEC5DE30F94094077
:10590000688379838A839B83DF91CF910895CF93B6
:10591000DF93EC01CB01BA010F94AA3F20E030E005
:1059200048EC51E40F940940688379838A839B8310
:10593000DF91CF910895CF93DF93EC01CB01BA01B2
:105940000F94AA3F20E030E048EC52E40F94094065
:10595000688379838A839B83DF91CF910895CF9366
:10596000DF93EC01CB01BA010F94AA3F2FE632E19D
:1059700043E85AE30F940940688379838A839B83C1
:10598000DF91CF910895CF93DF93EC01CB01BA0162
:105990000F94AA3F688379838A839B83DF91CF9199
:1059A0000895CF93DF93EC01CB01BA010F94AA3F86
:1059B0000F94A24579836883DF91CF910895811177
:1059C00018C08FEF90919A04890F837080939A0486
:1059D000E0919904EF5FE0939904F0E0EE0FFF1F70
:1059E000EB5CFB4F80919E04808380919C048183BB
:1059F000089581E0E7CFCF92DF92EF92FF921F935D
:105A0000CF93DF9310912304C3EFD3E0E0E090E065
:105A1000F0E080E049919F5F4111192F842B30E025
:105A200020E050E070E060E06A017B01022E04C0DB
:105A3000F694E794D794C7940A94D2F7C0FE08C0AE
:105A4000AF2FB0E0AA50BC4FFE2EF22AFC92FF5FAF
:105A50002F5F3F4F2530310539F7E05F9330D1F6A6
:105A60001093230450E040E020E090E0B0E0A0E09C
:105A70006C017D01042E04C0F694E794D794C7947A
:105A80000A94D2F7C0FC05C02E504F5F5F4F2A3BEF
:105A900079F7209326042AE335E0422F315020384D
:105AA00011F1225F6C017D01032E04C0F694E7948E
:105AB000D794C7940A94D2F7C0FEEFCF4093250441
:105AC00080912A04823039F480912704181674F4E6
:105AD00084E080932704DF91CF911F91FF90EF9096
